{
  "_format": "hh-sol-artifact-1",
  "contractName": "Txx",
  "sourceName": "contracts/txx/Txx.sol",
  "abi": [
    {
      "inputs": [
        {
          "internalType": "string",
          "name": "__instructions",
          "type": "string"
        }
      ],
      "stateMutability": "nonpayable",
      "type": "constructor"
    },
    {
      "inputs": [],
      "name": "INVALID_VERIFICATION_KEY",
      "type": "error"
    },
    {
      "inputs": [],
      "name": "MOD_EXP_FAILURE",
      "type": "error"
    },
    {
      "inputs": [],
      "name": "OPENING_COMMITMENT_FAILED",
      "type": "error"
    },
    {
      "inputs": [],
      "name": "PAIRING_FAILED",
      "type": "error"
    },
    {
      "inputs": [],
      "name": "PAIRING_PREAMBLE_FAILED",
      "type": "error"
    },
    {
      "inputs": [],
      "name": "POINT_NOT_ON_CURVE",
      "type": "error"
    },
    {
      "inputs": [
        {
          "internalType": "uint256",
          "name": "expected",
          "type": "uint256"
        },
        {
          "internalType": "uint256",
          "name": "actual",
          "type": "uint256"
        }
      ],
      "name": "PUBLIC_INPUT_COUNT_INVALID",
      "type": "error"
    },
    {
      "inputs": [],
      "name": "PUBLIC_INPUT_GE_P",
      "type": "error"
    },
    {
      "inputs": [],
      "name": "PUBLIC_INPUT_INVALID_BN128_G1_POINT",
      "type": "error"
    },
    {
      "inputs": [
        {
          "internalType": "bytes",
          "name": "proof",
          "type": "bytes"
        },
        {
          "internalType": "bytes32[]",
          "name": "publicInputs",
          "type": "bytes32[]"
        }
      ],
      "name": "check",
      "outputs": [
        {
          "internalType": "bool",
          "name": "",
          "type": "bool"
        }
      ],
      "stateMutability": "view",
      "type": "function"
    },
    {
      "inputs": [],
      "name": "circuit",
      "outputs": [
        {
          "internalType": "string",
          "name": "",
          "type": "string"
        }
      ],
      "stateMutability": "pure",
      "type": "function"
    },
    {
      "inputs": [],
      "name": "getVerificationKeyHash",
      "outputs": [
        {
          "internalType": "bytes32",
          "name": "",
          "type": "bytes32"
        }
      ],
      "stateMutability": "pure",
      "type": "function"
    },
    {
      "inputs": [],
      "name": "instructions",
      "outputs": [
        {
          "internalType": "string",
          "name": "",
          "type": "string"
        }
      ],
      "stateMutability": "view",
      "type": "function"
    },
    {
      "inputs": [
        {
          "internalType": "bytes",
          "name": "_proof",
          "type": "bytes"
        },
        {
          "internalType": "bytes32[]",
          "name": "_publicInputs",
          "type": "bytes32[]"
        }
      ],
      "name": "verify",
      "outputs": [
        {
          "internalType": "bool",
          "name": "",
          "type": "bool"
        }
      ],
      "stateMutability": "view",
      "type": "function"
    }
  ],
  "bytecode": "0x608060405234801561001057600080fd5b5060405161475438038061475483398101604081905261002f91610b3c565b620100006103805260406103a0527eeeb2cb5981ed45649abebde081dcff16c8601de4347e7dd1628ba2daac43b76103c0527f30641e0e92bebef818268d663bcad6dbcfd6c0149170f6d7d350b1b1fa6c10016103e0527e01eb1c16dce76490bfa9c70fbe1e97706147d4225c820fa023024a5fe59b7f610400527f054547c8f67c2f2235e3c68123d3b8913d66e0f20fde88ad4b083dc1fa0798f7610420527f075df37d975bd95b7e3fbaf8edc2123cf79891f388cf83dd3bb37af556674309610440527f2dbb98ce77e43bd26f67bcc36c97f68782832bd431883dd35082d2d83350b4b5610460527f1482e9949c296f99ecbf95442455ee0e2baf146d84ce9c01b7603828a3d5f112610480527f0f0355133126b6ffc73d45b574477a579451ed095bdb6e5da354e831296934466104a0527f09b6c7eacd87b04403dc19fb8900391d2055a200a9f58d1e82d05d57e5231c576104c0527f037ebbd2fa72f28acb86c8308ca6bf5b0bf1fcb8caf37594943ddce669dbbb486104e0527f29680ef3d31a1ffe38380bdd605c242e18105483fe8c094969b18552615f012b610500527f27cc32c6eeb47ab48a2207d6f6c25f6ed7a03a6f83b230cf78ceaa7be19ae04d610520527f178658e05ac68f9af3c5bb4633107fa3e2e07dfdbae0a1061f9f4c2b91f7eeca610540527f2be9df3b1693057da51818de0002a2e7e9c9f5f3112fe09d723be4df3fc0d688610560527f1674e24f0d302d732c39c0cdf01bc2f948b7f5f8130c43f3f650c916fa7d4dc9610580527f1cb922bfc13d03d578d7b91d7559eb2bd5f4eca4a90538f81bd23b64bab085656105a0527f076c2a4683806f11313a35ff2a8fcaed30cc4fc7b16eb62b67463c134039d3fd6105c0527f0770c19f76f89447bd1e378d6d922b926fbde1a0a6a005fca6d4fc1fe43d9cb76105e0527f1a5a97b44b15809cf54211fd582833427c3a9a418f74e93277d4ac046ff0ba51610600527f19aa085f30219b1df45d163d1929f841dc0f85b5eb284cf29dbaf66d6569d6dc610620527f0b09c637aa719980777bc2f5ad3d276ad8f3d6ddd39bd0e3eb892f36c06aa82c610640527f12d5ba7b65e0683f5ca013022fb109328ae4ce5384d4887dd304ca39c7c684cc610660527f1d7dd797ec5b605c709d38e700791e90cf3ac8dce23ac4ad4ae3947b82e68ad7610680527f2c78d48a77722c86647f5969d8b6e6e7936c0037be9c92848e07ba9681323ef96106a0527f0cc065e206e7297cd558944d1e1c26b9ae151240b8c57eeb76a01ba479a353616106c0527f1cafa3c8a9293a6937658afd47a9bbaf54e82b05c16f2041e9985ca5f8fdffbc6106e0527f1415034dfc579361868a13773fa6ad29b3c74782ee453565e05bb5fbc80bf096610700527f1fc3e951dbf2cd24c716883a59c158425b23488b3c494cf184e2e71ced865029610720527f2c0cc535f08201ab7707a7a0a247eb68939886a703eecb92748086c9c8ea34e7610740527f1a009cf86fab218b10769b3ea83eb736bd99ee97a063be49bf52eb8285467ea6610760527f0ac3a68596999462c19d0c046f384bf01a06f1c974e241f25a63d6b02526a780610780527f2e5cf1823acda433312d8de03caf764c4935d94e9c6b9ff08b073da2f2c4c78d6107a0527f1eca436d122c0f5e4ac7ae12cc97c7c3e015aa878f325401f3f293c4b47dcc3c6107c0527f049dbb6e363b01c8161d3fc2985884e7e0fdf26cbdae90f74159b6526ce846816107e0527f12396ea2de15df8d8a2825c66a381d125ed697615da4cf5c52c59d3dc8233baf610800527f0a7f1aab9815fa07c2c4b0c6fe2c81d70b484f16942719c348c63ae4d380eb1d610820527f0980cd374275c9787aea216cbc484c9d54f7e76139f7c5cdd86e7ac8065400c0610840527e54b42aba0f7391c675205c079047607f78ea335331091099dc27d02f50c8fa610860527f0919da2d6db2793920950179b3f03d53fde00ef60b13cd66fe4744bcd3ce8d6d610880527f1beaf821cc0735b5459faf865e9da4d3ac33cde80e9a3a0af377e9b9e431ccb66108a0527f04bcdc00863ae9647db8a1b43bc4119fa1215437f40334cc760116470f1b23b86108c0527f04127bdf658997093efda1a0dfc3a3057bb539575704af231406b6c352eb4a076108e0527f20a9dc1ea05054bd08dc75c3e958ad052e93828e83dd03af20905aa94d689b09610900527f0684dab0a608b13ecccd703b11c1b4ccfa2eb9adbfcf2ddf0980cd6477844591610920527f046637bd42e60b84f1f3cb4b4f3bb703f35fca5ccc0c2479e1fe4b22bfbe26cb610940527f0cca6ea5da408e90374a46462a41970e1763b83f53ac44341b36f49a4eff81ae610960527f235795b67e7a08c3c2008b81e240009da3acf27684071af34704f662eb70db38610980527f154ea603feec3025a78bad98c60835f100698936eee2e157ff46a476f4c285726109a05260006109c08190526109e0527f260e01b251f6f1c7e7ff4e580791dee8ea51d87a358e038b4efe30fac09383c1610a00527f0118c4d5b837bcc2bc89b5b398b5974e9f5944073b32078b7e231fec938883b0610a20527f04fc6369f7110fe3d25156c1bb9a72859cf2a04641f99ba4ee413c80da6a5fe4610a40527f22febda3c0c0632a56475b4214e5615e11e6dd3f96e6cea2854a87d4dacc5e55610a60527f0b5d56b77fe704e8e92338c0082f37e091126414c830e4c6922d5ac802d842d4613300527f30644e72e131a029b85045b68181585d97816a916871ca8d3c208c16d87cfd47600161040051610420518382830984600386838609088583840914841693505050506104405161046051838283098460038683860908858384091484169350505050610480516104a0518382830984600386838609088583840914841693505050506104c0516104e051838283098460038683860908858384091484169350508160005280602052505061050051610520518382830984600386838609088583840914841693505050506105405161056051838283098460038683860908858384091484169350505050610580516105a0518382830984600386838609088583840914841693505050506105c0516105e05183828309846003868386090885838409148416935050505061060051610620518382830984600386838609088583840914841693505050506106405161066051838283098460038683860908858384091484169350505050610680516106a0518382830984600386838609088583840914841693505050506106c0516106e05183828309846003868386090885838409148416935050505061070051610720518382830984600386838609088583840914841693505050506107405161076051838283098460038683860908858384091484169350505050610780516107a0518382830984600386838609088583840914841693505050506107c0516107e05183828309846003868386090885838409148416935050505061080051610820518382830984600386838609088583840914841693505050506108405161086051838283098460038683860908858384091484169350505050610880516108a0518382830984600386838609088583840914841693505050506108c0516108e05183828309846003868386090885838409148416935050505061090051610920518382830984600386838609088583840914841693505050506109405161096051838283098460038683860908858384091484169350505050610980516109a05183828309846003868386090885838409148416935050505080610b1057637e5769bf60e01b60005260046000fd5b5060009050610b1f8282610c91565b5050610d4f565b634e487b7160e01b600052604160045260246000fd5b600060208284031215610b4e57600080fd5b81516001600160401b03811115610b6457600080fd5b8201601f81018413610b7557600080fd5b80516001600160401b03811115610b8e57610b8e610b26565b604051601f8201601f19908116603f011681016001600160401b0381118282101715610bbc57610bbc610b26565b604052818152828201602001861015610bd457600080fd5b60005b82811015610bf357602081850181015183830182015201610bd7565b50600091810160200191909152949350505050565b600181811c90821680610c1c57607f821691505b602082108103610c3c57634e487b7160e01b600052602260045260246000fd5b50919050565b601f821115610c8c57806000526020600020601f840160051c81016020851015610c695750805b601f840160051c820191505b81811015610c895760008155600101610c75565b50505b505050565b81516001600160401b03811115610caa57610caa610b26565b610cbe81610cb88454610c08565b84610c42565b6020601f821160018114610cf25760008315610cda5750848201515b600019600385901b1c1916600184901b178455610c89565b600084815260208120601f198516915b82811015610d225787850151825560209485019460019092019101610d02565b5084821015610d405786840151600019600387901b60f8161c191681555b50505050600190811b01905550565b6139f680610d5e6000396000f3fe608060405234801561001057600080fd5b50600436106100575760003560e01c80631dfe03241461005c57806330bbb55e1461007a578063862b0b3414610082578063937f6a10146100a5578063ea50d0e4146100d3575b600080fd5b6100646100e6565b6040516100719190612c59565b60405180910390f35b610064610109565b610095610090366004612ca7565b61019b565b6040519015158152602001610071565b6040517f5979e4a6b6fb6c4082bf279e8c600d54fa0e459cddf8d64bcab24d1864f5ffe18152602001610071565b6100956100e1366004612ca7565b610211565b606060405180610ba00160405280610b7f8152602001612e42610b7f9139905090565b60606000805461011890612d7a565b80601f016020809104026020016040519081016040528092919081815260200182805461014490612d7a565b80156101915780601f1061016657610100808354040283529160200191610191565b820191906000526020600020905b81548152906001019060200180831161017457829003601f168201915b5050505050905090565b604051633a94343960e21b8152600090309063ea50d0e4906101c7908890889088908890600401612db4565b602060405180830381865afa1580156101e4573d6000803e3d6000fd5b505050506040513d601f19601f820116820180604052508101906102089190612e18565b95945050505050565b620100006103805260406103a0527eeeb2cb5981ed45649abebde081dcff16c8601de4347e7dd1628ba2daac43b76103c0527f30641e0e92bebef818268d663bcad6dbcfd6c0149170f6d7d350b1b1fa6c10016103e0527e01eb1c16dce76490bfa9c70fbe1e97706147d4225c820fa023024a5fe59b7f610400527f054547c8f67c2f2235e3c68123d3b8913d66e0f20fde88ad4b083dc1fa0798f7610420527f075df37d975bd95b7e3fbaf8edc2123cf79891f388cf83dd3bb37af556674309610440527f2dbb98ce77e43bd26f67bcc36c97f68782832bd431883dd35082d2d83350b4b5610460527f1482e9949c296f99ecbf95442455ee0e2baf146d84ce9c01b7603828a3d5f112610480527f0f0355133126b6ffc73d45b574477a579451ed095bdb6e5da354e831296934466104a0527f09b6c7eacd87b04403dc19fb8900391d2055a200a9f58d1e82d05d57e5231c576104c0527f037ebbd2fa72f28acb86c8308ca6bf5b0bf1fcb8caf37594943ddce669dbbb486104e0527f29680ef3d31a1ffe38380bdd605c242e18105483fe8c094969b18552615f012b610500527f27cc32c6eeb47ab48a2207d6f6c25f6ed7a03a6f83b230cf78ceaa7be19ae04d610520527f178658e05ac68f9af3c5bb4633107fa3e2e07dfdbae0a1061f9f4c2b91f7eeca610540527f2be9df3b1693057da51818de0002a2e7e9c9f5f3112fe09d723be4df3fc0d688610560527f1674e24f0d302d732c39c0cdf01bc2f948b7f5f8130c43f3f650c916fa7d4dc9610580527f1cb922bfc13d03d578d7b91d7559eb2bd5f4eca4a90538f81bd23b64bab085656105a0527f076c2a4683806f11313a35ff2a8fcaed30cc4fc7b16eb62b67463c134039d3fd6105c0527f0770c19f76f89447bd1e378d6d922b926fbde1a0a6a005fca6d4fc1fe43d9cb76105e0527f1a5a97b44b15809cf54211fd582833427c3a9a418f74e93277d4ac046ff0ba51610600527f19aa085f30219b1df45d163d1929f841dc0f85b5eb284cf29dbaf66d6569d6dc610620527f0b09c637aa719980777bc2f5ad3d276ad8f3d6ddd39bd0e3eb892f36c06aa82c610640527f12d5ba7b65e0683f5ca013022fb109328ae4ce5384d4887dd304ca39c7c684cc610660527f1d7dd797ec5b605c709d38e700791e90cf3ac8dce23ac4ad4ae3947b82e68ad7610680527f2c78d48a77722c86647f5969d8b6e6e7936c0037be9c92848e07ba9681323ef96106a0527f0cc065e206e7297cd558944d1e1c26b9ae151240b8c57eeb76a01ba479a353616106c0527f1cafa3c8a9293a6937658afd47a9bbaf54e82b05c16f2041e9985ca5f8fdffbc6106e0527f1415034dfc579361868a13773fa6ad29b3c74782ee453565e05bb5fbc80bf096610700527f1fc3e951dbf2cd24c716883a59c158425b23488b3c494cf184e2e71ced865029610720527f2c0cc535f08201ab7707a7a0a247eb68939886a703eecb92748086c9c8ea34e7610740527f1a009cf86fab218b10769b3ea83eb736bd99ee97a063be49bf52eb8285467ea6610760527f0ac3a68596999462c19d0c046f384bf01a06f1c974e241f25a63d6b02526a780610780527f2e5cf1823acda433312d8de03caf764c4935d94e9c6b9ff08b073da2f2c4c78d6107a0527f1eca436d122c0f5e4ac7ae12cc97c7c3e015aa878f325401f3f293c4b47dcc3c6107c0527f049dbb6e363b01c8161d3fc2985884e7e0fdf26cbdae90f74159b6526ce846816107e0527f12396ea2de15df8d8a2825c66a381d125ed697615da4cf5c52c59d3dc8233baf610800527f0a7f1aab9815fa07c2c4b0c6fe2c81d70b484f16942719c348c63ae4d380eb1d610820527f0980cd374275c9787aea216cbc484c9d54f7e76139f7c5cdd86e7ac8065400c0610840527e54b42aba0f7391c675205c079047607f78ea335331091099dc27d02f50c8fa610860527f0919da2d6db2793920950179b3f03d53fde00ef60b13cd66fe4744bcd3ce8d6d610880527f1beaf821cc0735b5459faf865e9da4d3ac33cde80e9a3a0af377e9b9e431ccb66108a0527f04bcdc00863ae9647db8a1b43bc4119fa1215437f40334cc760116470f1b23b86108c0527f04127bdf658997093efda1a0dfc3a3057bb539575704af231406b6c352eb4a076108e0527f20a9dc1ea05054bd08dc75c3e958ad052e93828e83dd03af20905aa94d689b09610900527f0684dab0a608b13ecccd703b11c1b4ccfa2eb9adbfcf2ddf0980cd6477844591610920527f046637bd42e60b84f1f3cb4b4f3bb703f35fca5ccc0c2479e1fe4b22bfbe26cb610940527f0cca6ea5da408e90374a46462a41970e1763b83f53ac44341b36f49a4eff81ae610960527f235795b67e7a08c3c2008b81e240009da3acf27684071af34704f662eb70db38610980527f154ea603feec3025a78bad98c60835f100698936eee2e157ff46a476f4c285726109a05260006109c08190526109e08190527f260e01b251f6f1c7e7ff4e580791dee8ea51d87a358e038b4efe30fac09383c1610a00527f0118c4d5b837bcc2bc89b5b398b5974e9f5944073b32078b7e231fec938883b0610a20527f04fc6369f7110fe3d25156c1bb9a72859cf2a04641f99ba4ee413c80da6a5fe4610a40527f22febda3c0c0632a56475b4214e5615e11e6dd3f96e6cea2854a87d4dacc5e55610a60527f0b5d56b77fe704e8e92338c0082f37e091126414c830e4c6922d5ac802d842d4613300526103a051828114610a0557604051637667dc9b60e01b8152600481018290526024810184905260440160405180910390fd5b7f30644e72e131a029b85045b68181585d97816a916871ca8d3c208c16d87cfd477f30644e72e131a029b85045b68181585d2833e84879b9709143e1f593f00000016024600435018281350661122052826020820135066112005282604082013506611260528260608201350661124052826080820135066112a0528260a082013506611280528260c0820135066112e0528260e0820135066112c05282610100820135066113205282610120820135066113005282610140820135066113605282610160820135066113405282610180820135066113a052826101a08201350661138052826101c0820135066113e052826101e0820135066113c05282610200820135066114205282610220820135066114005282610240820135066114605282610260820135066114405282610280820135066114a052826102a08201350661148052816102c08201350661160052816102e0820135066116205281610300820135066116405281610320820135066116605281610340820135066116805281610360820135066116a05281610380820135066116c052816103a0820135066116e052816103c08201350661170052816103e0820135066117205281610400820135066117405281610420820135066117605281610440820135066117805281610460820135066117a05281610480820135066117c052816104a0820135066117e052816104c08201350661180052816104e0820135066119605281610500820135066119805281610520820135066119a05281610540820135066119c052816105608201350661184052816105808201350661186052816105a08201350661188052816105c0820135066118a052816105e0820135066118c05281610600820135066118e05281610620820135066119005281610640820135066119205281610660820135066119405281610680820135066119e052816106a08201350661200052816106c08201350661202052816106e0820135066120405281610700820135066120605281610720820135066120805281610740820135066120a05281610760820135066120c05281610780820135066120e052816107a08201350661210052816107c08201350661212052826107e08201350661232052826108008201350661230052826108208201350661236052826108408201350661234052506109c05115610e67576024803501806109e05160051b0190508035602082013560441b81019050604082013560881b81019050606082013560cc1b81019050608082013560a083013560441b8101905060c083013560881b8101905060e083013560cc1b8101905061010083013561012084013560441b8101905061014084013560881b8101905061016084013560cc1b810190506101808401356101a085013560441b810190506101c085013560881b810190506101e085013560cc1b810190508361340052826134205281613440528061346052868110878410168783108886101616610e61576375d4fa5360e11b60005260046000fd5b50505050505b6103805160e01b6000526103a05160e01b60045260086000208061348052602480350160206103a05102808260206134800137600435602401915060c0826134a083013760e0016134802083810661266081905290925090508281800961268052828161268051096126a05250806000526112e0516020526112c051604052611320516060526113005160805260a0600020905081810661260052806000526001602053506021600090812082810661262052815261136051602052611340516040526113a0516060526113805160805260a09020818106612640819052828180096133205282816133205109613340528281613340510961336052806133805250806000526113e0516020526113c05160405261142051606052611400516080526114605160a0526114405160c0526114a05160e052611480516101005261012060002090508181066126c052806126e0525061260051612620516103c051600180856001602480350160206103a0510281018360058a0984600c8b0999505b8183101561102757823585811085169450858a82089050858183018909975085818c01880996505084888209905084888b099950602083019250610fe8565b505050806110405763374a972f60e01b60005260046000fd5b50508161300052806130205250505050508081600161260051086126205109806103805160015b8181101561107c578483840992508001611067565b5050613100528181800990508181820961312052506126c05161038051819060015b818110156110b357848384099250800161109e565b50508061304052826001840382089050613300518084036103e051858286088684840992508687848808820990508684840992508687848808820990508687888686098808820990506103c051925086828609915086600188038708878485099450876001890389898b888d8b8c0909090896506130205194508493508782860994508488878709955085898388099650868a61312051890997508760206000526020805260206040528b8b8a0960605260028c036080528b60a0526020600060c0600060055afa61119057633e2529ef60e21b60005260046000fd5b60005198508b818a0990508b8b8a0998508b828a0991508b613120518a0998508b838a0992508b858a0998508b848a0993508b8a8a0998508b888a0997508b868a0998508b613020518d8b8c090998508b896130005109613060528b888b09613080528b848709613680528b8388096130a0528b826131005109613140528b8188096130c052505050505050505050505061264051506126005161262051828361190051840982611620510101846118e051850983611600510101098384611940518509836116605101018561192051860984611640510101098485868385096116a051096133805109858661198051870985611620510101876119605188098661160051010109925085866119c051870985611660510101876119a0518809866116405101010991508586878885870961208051096133805109870382089050856126405161338051096133805285868788613060518a0361208051086130c0510961338051098208905085612640516133805109613380528586878860018a036116a051086130a05109613380510982086135005250505050508061264051613380510961338052806117205161266051098182836120205161178051096116405108820890508161266051820990508182836120005161176051096116205108820890508161266051820990508182836119e0516117005109611600510882089050816118405183846126605161186051098586612680516118805109876126a0516118a05109080808826120c0518485612660516120e051098687612680516121005109886126a051612120510908080883846001612600510861262051098461262051866118c051870908935084818687612600518609860808925084838509935084856001612600510885099350846130a05161264051099250848385089350846116c0518509935084838603850893508481868761260051612060510961168051080892505050826130c05161332051098381850383089150836120a05183099150838461314051830983089150508261338051848386038508096135205250508061334051613380510961338052806116e0516116005109816117005161162051098261172051611640510983611740516116605109847f183227397098d014dc2822db40c0ac2e9419f4243cdcb848a1f0fac9f80000008687600389036117a0510888611760518a6116205161160051090909098586878889858a08880886088408611780510894505050505081828384856116605161160051086119e051870308611760510884600286036117a05108096126405109828384858685612040510887600189036117a051080985086117a05109613380510961354052505080613320516133805109613380526002810360038203826116005184036116205108836116205185036116405108846116405186036116605108856116605187036119e05108866133805188898888088a8b8b8a088c8a8e038e8c8d09080909099350868788612640516133805109898a8988088b8c8c8a088d8a8f038f8c8d090809090985089350868788613320516133805109898a8987088b8c8c89088d898f038f8b8c090809090985089350868788613340516133805109898a8986088b8c8c88088d888f038f8a8b090809090985089350505050836117c051820961356052505061336051613380518392500961338052806116205182036119e051088161204051612040510982611640516116405109836116e05185612040516116405109098485868384088785870888030886878788098889611620516119e0510861200051080908925050508261338051848561176051870360010884090990508261202051611640510883611640518503856116e05161204051090884858287611620518903612000510809868685090893505050828361264051613380510984856117605187036001088509099150826117e0518484840809613580525050806116205161162051098161164051611640510982611620518460118408098360048309915083600982099050836003840992508381850385848788611620516116205108612000510809089150508283846120205161164051088561164051611640510809840384856120005187036116205108850908915082613380518209905082836126405161338051098309915082611760518209905082611760518309915082836117e0518585850809613580510861358052505080613360516133805109613380528081611620516119e05109826120005161160051090881612020518303838461164051611620510985611660516116005109080882600160441b82099050826120405184038208905082828208905082611740518209905082600160441b830991508283612000516119e05109830891508261172051848561166051611640510886038508098361176051858661204051612020510887038761166051880808099250836117005185858786860808096135c0525050612000518291506140009009816119e0518208905081614000820990508161164051820890508161400082099050816116205182089050816140008209905081611600518208905081611660518303820890508161174051820990508161400061202051098261200051820890508261400082099050826119e05182089050826140008209905082611660518208905082614000820990508261164051820890508261204051840382089050826117605182099050826117205184838508096135e0525050806126605161164051098161162051820890508161266051820990508161160051820890508161266051820990508161178051820890508082611660518403830891508161364052826116005184036119e05108836116605185036120405108848560018703840883098586848803600108830991508585876126405189858b61264051890908090861362052856126605161202051099450856120005186089450856126605186099450856119e0518608945085612660518609945085858703612040510894508561164051870361202051089150858687878903600108840987858903600108099150858487036116605108868760018903830882099050868760018903880887099550866126405184099250868284089250866126405184099250868684089250866126405184099250868184089250508161360052505083611620518503612000510892508361164051850385868488036001088609089250836117005161362051099150838461174051850983089150838461176051613640510983089150836116e0518309915083846117a051613600510983089150836135c05183089250836135e05184089250836118005184099250836133805184099250826135a05283613340516133805109613380525050508061368051826135a0518461358051866135605188613540518a61352051613500510808080808096136608190526126e0516136a08190526136c0919091526102e460043501610520816136e03750506105606136a020818106612700526000819052600160205381602160002006612720526002602053816021600020066127405260036020538160216000200661276052600460205381602160002006612780526005602053816021600020066127a0526006602053816021600020066127c0526007602053816021600020066127e0526008602053816021600020066128005260096020538160216000200661282052600a6020538160216000200661284052600b6020538160216000200661286052600c6020538160216000200661288052600d602053816021600020066128a052600e602053816021600020066128c052600f602053816021600020066128e05260106020538160216000200661290052601160205381602160002006612920526012602053816021600020066129405260136020538160216000200661296052601460205381602160002006612980526015602053816021600020066129a0526016602053816021600020066129c0526017602053816021600020066129e052601860205381602160002006612a0052601960205381602160002006612a2052601a60205381602160002006612a4052601b60205381602160002006612a6052601c60205381602160002006612a8052601d60205381602160002006612aa052601d6020535060216000908120828106612ac05281526123205160205261230051604052612360516060526123405160805260a08120829006612b00526113c0516113e0518482800985600387838609088683840914611df7576328f6b59560e21b60005260046000fd5b50613160919091526131805261140051611420518482800985600387838609088683840914611e31576328f6b59560e21b60005260046000fd5b50816000528060205250506130405160405260406131a06060600060075afa90506040613160608061316060065afa8116905061144051611460518482830985600387838609088683840914611e92576328f6b59560e21b60005260046000fd5b50600091909152602052613040518290800960405260406131a06060600060075afa16604061316060808160065afa81169050611480516114a0518482830985600387838609088683840914611ef3576328f6b59560e21b60005260046000fd5b50600091909152602052613040518290818180090960405260406131a06060600060075afa16604061316060808160065afa8116905061120051611220518482830985600387838609088683840914611f57576328f6b59560e21b60005260046000fd5b50816000528060205250508161270051836001612b0051080960405260406131a06060600060075afa16604061316060808160065afa8116905061124051611260518482830985600387838609088683840914611fbf576328f6b59560e21b60005260046000fd5b50816000528060205250508161272051836001612b0051080960405260406131a06060600060075afa16604061316060808160065afa81169050611280516112a0518482830985600387838609088683840914612027576328f6b59560e21b60005260046000fd5b50816000528060205250508161274051836001612b0051080960405260406131a06060600060075afa16604061316060808160065afa811690506112c0516112e051848283098560038783860908868384091461208f576328f6b59560e21b60005260046000fd5b50816000528060205250508161276051836001612b0051080960405260406131a06060600060075afa16604061316060808160065afa81169050611300516113205184828309856003878386090886838409146120f7576328f6b59560e21b60005260046000fd5b50816000528060205250508161278051836001612b0051080960405260406131a06060600060075afa16604061316060808160065afa811690506113405161136051848283098560038783860908868384091461215f576328f6b59560e21b60005260046000fd5b5081600052806020525050816127a051836001612b0051080960405260406131a06060600060075afa16604061316060808160065afa81169050611380516113a05184828309856003878386090886838409146121c7576328f6b59560e21b60005260046000fd5b5081600052806020525050816127c051836001612b0051080960405260406131a06060600060075afa16604061316060808160065afa8116905061040051600052610420516020526127e05160405260406131a06060600060075afa16604061316060808160065afa8116905061044051600052610460516020526128005160405260406131a06060600060075afa16604061316060808160065afa81169050610480516000526104a0516020526128205160405260406131a06060600060075afa16604061316060808160065afa811690506104c0516000526104e0516020526128405160405260406131a06060600060075afa16604061316060808160065afa8116905061050051600052610520516020526128605160405260406131a06060600060075afa16604061316060808160065afa8116905061054051600052610560516020526128805160405260406131a06060600060075afa16604061316060808160065afa81169050610580516000526105a0516020526128a05160405260406131a06060600060075afa16604061316060808160065afa811690506105c0516000526105e0516020526128c05160405260406131a06060600060075afa16604061316060808160065afa8116905061060051600052610620516020526128e05160405260406131a06060600060075afa16604061316060808160065afa8116905061064051600052610660516020526129005160405260406131a06060600060075afa16604061316060808160065afa81169050610680516000526106a0516020526129205160405260406131a06060600060075afa16604061316060808160065afa811690506106c0516000526106e0516020526129405160405260406131a06060600060075afa16604061316060808160065afa8116905061070051600052610720516020526129605160405260406131a06060600060075afa16604061316060808160065afa8116905061074051600052610760516020526129805160405260406131a06060600060075afa16604061316060808160065afa81169050610780516000526107a051602052816129a051836001612b0051080960405260406131a06060600060075afa16604061316060808160065afa811690506107c0516000526107e051602052816129c051836001612b0051080960405260406131a06060600060075afa16604061316060808160065afa811690506108005160005261082051602052816129e051836001612b0051080960405260406131a06060600060075afa16604061316060808160065afa81169050610840516000526108605160205281612a0051836001612b0051080960405260406131a06060600060075afa16604061316060808160065afa81169050610880516000526108a051602052612a205160405260406131a06060600060075afa16604061316060808160065afa811690506108c0516000526108e051602052612a405160405260406131a06060600060075afa16604061316060808160065afa811690506109005160005261092051602052612a605160405260406131a06060600060075afa16604061316060808160065afa811690506109405160005261096051602052612a805160405260406131a06060600060075afa16604061316060808160065afa81169050610980516000526109a051602052612aa05160405260406131a06060600060075afa16604061316060808160065afa8116905081826116005184612b00516119e051090861270051098283846116205186612b00516120005109086127205109820890508283846116405186612b00516120205109086127405109820890508283846116605186612b00516120405109086127605109820890508283846116805186612b00516120605109086127805109820890508283846116a05186612b00516120805109086127a05109820890508283846116c05186612b00516120a05109086127c051098208905082836116e0516127e051098208905082836117005161280051098208905082836117205161282051098208905082836117405161284051098208905082836117605161286051098208905082836117805161288051098208905082836117a0516128a051098208905082836117c0516128c051098208905082836117e0516128e051098208905082836118005161290051098208905082836119605161292051098208905082836119805161294051098208905082836119a05161296051098208905082836119c0516129805109820890508283846118405186612b00516120c05109086129a05109820890508283846118605186612b00516120e05109086129c05109820890508283846118805186612b00516121005109086129e05109820890508283846118a05186612b0051612120510908612a0051098208905082836118c051612a2051098208905082836118e051612a40510982089050828361190051612a60510982089050828361192051612a80510982089050828361194051612aa0510982089050826136605182089050600160005260026020528083036040525060406131a06060600060075afa16604061316060808160065afa168061294a57634e71976360e01b60005260046000fd5b612b00516126c05161230051612320518682830987600389838609088883840914612980576328f6b59560e21b60005260046000fd5b50816000528060205250508060405260406131a06060600060075afa92506040613160608061316060065afa83169250612340516123605186828309876003898386090888838409146129de576328f6b59560e21b60005260046000fd5b5081600052806020525050836103c05185838509096040525060406131a06060600060075afa821691506040613220608061316060065afa8216915061230051600052612320516020526123405160405261236051606052806080526040806060604060075afa8216915060406131e06080600060065afa82169150613200518403613200526109c05115612b3f5761340051613420518582830986600388838609088783840914612a9b576328f6b59560e21b60005260046000fd5b50600091909152602052828180096040526040606080600060075afa8216915061344051613460518582830986600388838609088783840914612ae9576328f6b59560e21b60005260046000fd5b50600091825260205260409060608160075afa821691506132205160a0526132405160c05260406132206080606060065afa821691506131e0516040526132005160605260406131e06080600060065afa821691505b5080612b56576301882d8160e01b60005260046000fd5b61322051600052613240516020527f198e9393920d483a7260bfb731fb5d25f1aa493335a9e71297e485b7aef312c26040527f1800deef121f1e76426a00665e5c4479674322d4f75edadd46debd5cd992f6ed6060527f090689d0585ff075ec9e99ad690c3395bc4b313370b38ef355acdadcd122975b6080527f12c85ea5db8c6deb4aab71808dcb408fe3d1e7690c43d37b4ce6cc0166fa7daa60a0526131e05160c0526132005160e052610a005161010052610a205161012052610a405161014052610a60516101605260206000610180600060085afa90506000518116612c4b5763d71fd26360e01b60005260046000fd5b505050600160005260206000f35b602081526000825180602084015260005b81811015612c875760208186018101516040868401015201612c6a565b506000604082850101526040601f19601f83011684010191505092915050565b60008060008060408587031215612cbd57600080fd5b843567ffffffffffffffff811115612cd457600080fd5b8501601f81018713612ce557600080fd5b803567ffffffffffffffff811115612cfc57600080fd5b876020828401011115612d0e57600080fd5b60209182019550935085013567ffffffffffffffff811115612d2f57600080fd5b8501601f81018713612d4057600080fd5b803567ffffffffffffffff811115612d5757600080fd5b8760208260051b8401011115612d6c57600080fd5b949793965060200194505050565b600181811c90821680612d8e57607f821691505b602082108103612dae57634e487b7160e01b600052602260045260246000fd5b50919050565b6040815283604082015283856060830137600060608583018101829052601f19601f8701168301838103820160208501529081018490526001600160fb1b03841115612dff57600080fd5b8360051b80866080840137016080019695505050505050565b600060208284031215612e2a57600080fd5b81518015158114612e3a57600080fd5b939250505056fe7b22616269223a7b22706172616d6574657273223a5b7b226e616d65223a227369676e6174757265222c2274797065223a7b226b696e64223a226172726179222c226c656e677468223a36342c2274797065223a7b226b696e64223a22696e7465676572222c227369676e223a22756e7369676e6564222c227769647468223a387d7d2c227669736962696c697479223a2270726976617465227d2c7b226e616d65223a227075624b657958222c2274797065223a7b226b696e64223a226172726179222c226c656e677468223a33322c2274797065223a7b226b696e64223a22696e7465676572222c227369676e223a22756e7369676e6564222c227769647468223a387d7d2c227669736962696c697479223a227075626c6963227d2c7b226e616d65223a227075624b657959222c2274797065223a7b226b696e64223a226172726179222c226c656e677468223a33322c2274797065223a7b226b696e64223a22696e7465676572222c227369676e223a22756e7369676e6564222c227769647468223a387d7d2c227669736962696c697479223a227075626c6963227d2c7b226e616d65223a226861736865644d7367222c2274797065223a7b226b696e64223a226172726179222c226c656e677468223a33322c2274797065223a7b226b696e64223a22696e7465676572222c227369676e223a22756e7369676e6564222c227769647468223a387d7d2c227669736962696c697479223a2270726976617465227d2c7b226e616d65223a2270617373776f7264222c2274797065223a7b226b696e64223a22737472696e67222c226c656e677468223a387d2c227669736962696c697479223a2270726976617465227d5d2c2272657475726e5f74797065223a6e756c6c2c226572726f725f7479706573223a7b7d7d2c2262797465636f6465223a224834734941414141414141412f39575a5a334d625652534731356753656b4c764f49515375716f6c55524e43636569394638755748427543452b775565687871364c3033557850487666646567542f46666131396958672f33526e752f5a43644f585031544d356b7a7369726338377555784955726955546634656653307955687039584648474a3843484370634b484368386d664c6a774563497268493855506b7234614f466a68493856506b3734654f4756777175455478412b5566676b345a4f465478452b5666673034644f467a78412b552f677334624f467a78452b5637684d654c587765634a72684d3858766b44345175474c684e634b587978386966436c7770634a5879353868664356776848687148424d4f4336634545344b6c77756e684e504347654772684b3857766b623457754872684b38585869653858766747345133434e7772664a48797a384333434663496268573856766b333464754537684f3855766b763462754637684f3856766b2f346675454868423855666b6a345965464868423856666b7a346365456e684a3855666b7134556a6772584356634c5a77547a6776584347385372685775453335612b426e687a634c504374634c627848654b76796363494e776f2f4132346533434f345233436a38762f494c7769384976436238732f49727771384b37684a75456477752f4a767936384276436277712f4a6679323842376864345466465835502b4833684434512f465035492b4750685434512f4666354d2b4850684c34532f4650354b2b4776686234532f4666354f2b4876684834522f4650354a75466e345a2b4666684838562f6b3334642b452f685063574d5861376453477644302f4f6d77336879666e4375634a35776a6c53455a3663473577586e424f634435774c6e416563412b7a2f37507673392b7a7a374f2f73362b7a6e374f5073332b7a62374e6673302b7a50374d7673782b7a446c65475a44552f32322b72775a48396c5832552f5a522b7444552f3254665a4c396b6e32522f5a46396b50325166592f396a33324f2f5935396a66324e66597a396a48324c2f5974396976324b66596e39695832492f616849446877502b446b38305a7065504c3567733856664a3767637753447a7731385875427a417038502b467a413577452b4233442f35393750665a3937507664373776586335376e4863332f6e337335396e5873363933507535647a487559655868656671384f532b765359387556397a722b592b7a54313662586879622b612b7a44325a2b7a48335975374433494f352f334c763562374c505a66374c6664613772506359376d2f636d2f6c76736f396c66737039314c756f3978446d384a7a64336879336e444f634c3577726e43656349377343552f4f4463344c7a676e4f423834467a67504f41665a2f396e3332652f5a35396e663264665a7a396e4832622f5a74396d763261665a6e396d5832592f62686663462f72354c77584265656b663933526663562f562f7853486b696b552f46387446344e42754a5a61725379556769575657656a71616a7958517946307648342f6c304970334b564756536b5577304563394861354b5a654533346e3645322f6835784e5965664f544d344b7a676a4f427334457a674c4f414e61544f7733305771697a555337695134546e536136544853623644485261364c50524c2b4a41524f444a6f5a4d444a73594d54467159737a4575496b4a45354d6d706b784d6d3567784d5774697a735338695155546930486858596a503737334677666565723845567a2f717363372b7a4f6a4e6536327831566d63753762504f4e6d643170754d2b36327833566d664b362f665a34617a4f574e4a6e6e5a334f36697a502b4b797a79316d6465612f335a37657a4f754e356e335832754b737a3537504f337544672b4c33337561757a326d65642f6337717a4d6438316a6e67724d367331392f526f4c4d366b776d6664513635757a2b397a714e685a33566d764e593534717a4f4b71392f3931463339366658332f7559737a707a5875736364315a6e776d74666d6e42575a387272397a6e70724d3659317a316b796c6d6479596a504f716664335a39652b394b4d737a7072556a37726e4856575a35585835364d355a33586d764434667a5475724d786e3157656543757a724c66646135364b7a4f724e663763386e64392f6e762b3178637456497a504578702b4f39774c2f4175644335774c66417363437a774b334172384370774b76417063436e774b48416f384364774a2f416d634362774a58416c384352774a50416a63435077496e41695a554842686343447749484166384239774876416561774e437134446e674f4f4133344462674e6541303444517745334e495974666f426f766c686763664f67776548684658386765416f344376674a75416c344354694a707144674975416834434467482b416534423367484f41623442726747654159344266674675415634425467452b415334424867454f4150344137674465414d344176674375414a34416a67422b414734415867424a71447776743076457648653353385138663763377737333176307438653550696a34557268536546493455766852754e474b6f4f4245345550685175464234554468502b452b34543368504f4537345472684f654534345466684e754531345454684d2b4579345448684d4f45763453347267344b7a684b2f45677a615742697869384a4e776b37696634435468492b456934534868494f45663452376848654563345276684775455a34526a68462b455734525868464f455434524c684565455134513933425165753155576657346f2b727772506a66553773707672636d574e645a7671733975324e797776693631466953736c635775327358486e6c6f626c4a616a4e4d712f644d712f444d712f544d712f4c4d712f624d712f484d712f584d712f504d712f664d6d2f414d6d2f514d6d2f494d6d2f594d6d2f454d6d2f554d6d2f4d4d6d2f634d6d2f434d6d2f534d6d2f4b4d6d2f614d6d2f474d6d2f574d6d2f4f4d6d2f654d6d2f424d6d2f524d6d2f4a4d7539507937792f4c504f57723338416f7068476d4259754141413d227da2646970667358221220df2e179412d5b8b70bdd5957f3be3ae911ce61a9047edc50664a921a3e4d441e64736f6c634300081b0033",
  "linkReferences": {},
  "deployedLinkReferences": {}
}