{
  "_format": "hh-sol-artifact-1",
  "contractName": "Zeronaut",
  "sourceName": "zeronaut-contracts/contracts/Zeronaut.sol",
  "abi": [
    {
      "anonymous": false,
      "inputs": [
        {
          "indexed": false,
          "internalType": "bytes32",
          "name": "id",
          "type": "bytes32"
        },
        {
          "indexed": false,
          "internalType": "address",
          "name": "owner",
          "type": "address"
        }
      ],
      "name": "CampaignCreated",
      "type": "event"
    },
    {
      "anonymous": false,
      "inputs": [
        {
          "indexed": true,
          "internalType": "address",
          "name": "self",
          "type": "address"
        },
        {
          "indexed": false,
          "internalType": "address",
          "name": "implementation",
          "type": "address"
        }
      ],
      "name": "Upgraded",
      "type": "event"
    },
    {
      "inputs": [
        {
          "internalType": "bytes32",
          "name": "id",
          "type": "bytes32"
        }
      ],
      "name": "createCampaign",
      "outputs": [],
      "stateMutability": "nonpayable",
      "type": "function"
    },
    {
      "inputs": [
        {
          "internalType": "bytes32",
          "name": "id",
          "type": "bytes32"
        }
      ],
      "name": "getCampaign",
      "outputs": [
        {
          "components": [
            {
              "internalType": "bytes32",
              "name": "id",
              "type": "bytes32"
            },
            {
              "internalType": "address",
              "name": "owner",
              "type": "address"
            },
            {
              "internalType": "bytes32[]",
              "name": "levels",
              "type": "bytes32[]"
            }
          ],
          "internalType": "struct ZeronautStorage.Campaign",
          "name": "",
          "type": "tuple"
        }
      ],
      "stateMutability": "view",
      "type": "function"
    },
    {
      "inputs": [],
      "name": "getImplementation",
      "outputs": [
        {
          "internalType": "address",
          "name": "",
          "type": "address"
        }
      ],
      "stateMutability": "view",
      "type": "function"
    },
    {
      "inputs": [
        {
          "internalType": "bytes32",
          "name": "id",
          "type": "bytes32"
        }
      ],
      "name": "getLevel",
      "outputs": [
        {
          "components": [
            {
              "internalType": "bytes32",
              "name": "id",
              "type": "bytes32"
            },
            {
              "internalType": "address",
              "name": "addr",
              "type": "address"
            },
            {
              "internalType": "bytes32",
              "name": "campaignId",
              "type": "bytes32"
            }
          ],
          "internalType": "struct ZeronautStorage.Level",
          "name": "",
          "type": "tuple"
        }
      ],
      "stateMutability": "view",
      "type": "function"
    },
    {
      "inputs": [],
      "name": "getOwner",
      "outputs": [
        {
          "internalType": "address",
          "name": "",
          "type": "address"
        }
      ],
      "stateMutability": "view",
      "type": "function"
    },
    {
      "inputs": [
        {
          "internalType": "bytes32",
          "name": "levelId",
          "type": "bytes32"
        },
        {
          "internalType": "address",
          "name": "player",
          "type": "address"
        }
      ],
      "name": "isLevelSolved",
      "outputs": [
        {
          "internalType": "bool",
          "name": "",
          "type": "bool"
        }
      ],
      "stateMutability": "view",
      "type": "function"
    },
    {
      "inputs": [
        {
          "internalType": "bytes32",
          "name": "campaignId",
          "type": "bytes32"
        },
        {
          "internalType": "bytes32",
          "name": "levelId",
          "type": "bytes32"
        },
        {
          "internalType": "address",
          "name": "addr",
          "type": "address"
        }
      ],
      "name": "setLevel",
      "outputs": [],
      "stateMutability": "nonpayable",
      "type": "function"
    },
    {
      "inputs": [
        {
          "internalType": "bytes32",
          "name": "levelId",
          "type": "bytes32"
        },
        {
          "internalType": "bytes",
          "name": "proof",
          "type": "bytes"
        },
        {
          "internalType": "bytes32[]",
          "name": "publicInputs",
          "type": "bytes32[]"
        }
      ],
      "name": "solveLevel",
      "outputs": [],
      "stateMutability": "nonpayable",
      "type": "function"
    },
    {
      "inputs": [
        {
          "internalType": "address",
          "name": "newImplementation",
          "type": "address"
        }
      ],
      "name": "upgradeTo",
      "outputs": [],
      "stateMutability": "nonpayable",
      "type": "function"
    }
  ],
  "bytecode": "0x6080604052348015600f57600080fd5b50610dbb8061001f6000396000f3fe608060405234801561001057600080fd5b50600436106100935760003560e01c8063aaf10f4211610066578063aaf10f4214610108578063b4c0d9cc14610110578063cabe045214610123578063debf323d14610143578063eb2e74271461018157600080fd5b80633659cfe6146100985780636b52da08146100ad578063893d20e8146100d5578063a2738963146100f5575b600080fd5b6100ab6100a6366004610ae0565b610194565b005b6100c06100bb366004610b02565b61030e565b60405190151581526020015b60405180910390f35b6100dd610345565b6040516001600160a01b0390911681526020016100cc565b6100ab610103366004610b2e565b610354565b6100dd6104d9565b6100ab61011e366004610b63565b6104f2565b610136610131366004610b63565b6105cb565b6040516100cc9190610b7c565b610156610151366004610b63565b610677565b60408051825181526020808401516001600160a01b03169082015291810151908201526060016100cc565b6100ab61018f366004610c38565b6106e0565b61019c6108ab565b6001600160a01b0381166101f75760405162461bcd60e51b815260206004820181905260248201527f55555053496d706c656d656e746174696f6e3a205a65726f206164647265737360448201526064015b60405180910390fd5b803b6102505760405162461bcd60e51b815260206004820152602260248201527f55555053496d706c656d656e746174696f6e3a204e6f74206120636f6e74726160448201526118dd60f21b60648201526084016101ee565b600061025a610925565b80549091506001600160a01b03908116908316036102ba5760405162461bcd60e51b815260206004820152601d60248201527f55555053496d706c656d656e746174696f6e3a204e6f206368616e676500000060448201526064016101ee565b80546001600160a01b0319166001600160a01b038316908117825560405190815230907f5d611f318680d00598bb735d61bacf0c514c6b50e1e5ad30040a4df2b12791c79060200160405180910390a25050565b600061031861097b565b6000938452600201602090815260408085206001600160a01b039490941685529290525090205460ff1690565b600061034f6109ad565b905090565b823361035e61097b565b600083815260209190915260409020600101546001600160a01b0316146103c75760405162461bcd60e51b815260206004820152601b60248201527f4f6e6c792063616d706169676e206f776e657220616c6c6f776564000000000060448201526064016101ee565b60006103d161097b565b60008681526020829052604090208054919250906104315760405162461bcd60e51b815260206004820152601760248201527f43616d706169676e20646f6573206e6f7420657869737400000000000000000060448201526064016101ee565b600085815260018381016020526040822087815590810180546001600160a01b0319166001600160a01b0388161790556002810188905590805b60028401548110156104ae578784600201828154811061048d5761048d610ce9565b9060005260206000200154036104a657600191506104ae565b60010161046b565b50806104cf5760028301805460018101825560009182526020909120018790555b5050505050505050565b60006104e3610925565b546001600160a01b0316919050565b60006104fc61097b565b6000838152602082905260409020600101549091506001600160a01b0316156105675760405162461bcd60e51b815260206004820152601960248201527f43616d706169676e20696420616c72656164792074616b656e0000000000000060448201526064016101ee565b600082815260208281526040918290208481556001810180546001600160a01b03191633908117909155835186815292830152917f56419e16617c73fd93c78ff2bdc4b1dc1dae51571a63e868c6fdab1e9b244f32910160405180910390a1505050565b604080516060808201835260008083526020830152918101919091526105ef61097b565b6000838152602091825260409081902081516060810183528154815260018201546001600160a01b03168185015260028201805484518187028101870186528181529295939486019383018282801561066757602002820191906000526020600020905b815481526020019060010190808311610653575b5050505050815250509050919050565b604080516060810182526000808252602082018190529181019190915261069c61097b565b600092835260019081016020908152604093849020845160608101865281548152928101546001600160a01b03169183019190915260020154928101929092525090565b60006106ea61097b565b60008781526001808301602052604090912090810154919250906001600160a01b03166107505760405162461bcd60e51b815260206004820152601460248201527313195d995b08191bd95cc81b9bdd08195e1a5cdd60621b60448201526064016101ee565b600061075c85856109b7565b90506001600160a01b03811633146107c05760405162461bcd60e51b815260206004820152602160248201527f50726f6f66206d7573742062652067656e65726174656420627920706c6179656044820152603960f91b60648201526084016101ee565b600182015460405163218ac2cd60e21b81526000916001600160a01b03169063862b0b34906107f9908b908b908b908b90600401610cff565b602060405180830381865afa158015610816573d6000803e3d6000fd5b505050506040513d601f19601f8201168201806040525081019061083a9190610d63565b90508061087c5760405162461bcd60e51b815260206004820152601060248201526f13195d995b081b9bdd081cdbdb1d995960821b60448201526064016101ee565b505050600095865260020160209081526040808720338852909152909420805460ff1916600117905550505050565b6108b36109ad565b6001600160a01b0316336001600160a01b0316146109235760405162461bcd60e51b815260206004820152602760248201527f4f776e61626c6553746f726167653a2043616c6c6572206973206e6f74207468604482015266329037bbb732b960c91b60648201526084016101ee565b565b60008060405160200161095d90602080825260119082015270696f2e7a65726f6e6175742e70726f787960781b604082015260600190565b60408051601f19818403018152919052805160209091012092915050565b60008060405160200161095d906020808252600b908201526a1a5bcb9e995c9bdb985d5d60aa1b604082015260600190565b60006104e3610a8a565b60006040821015610a0a5760405162461bcd60e51b815260206004820152601c60248201527f496e76616c6964207075626c696320696e70757473206c656e6774680000000060448201526064016101ee565b600080805b6020811015610a325760089290921b60ff60208402870135161791600101610a0f565b5060205b6040811015610a595760089190911b60ff60208302870135161790600101610a36565b5060408051602080820194909452808201929092528051808303820181526060909201905280519101209392505050565b60008060405160200161095d90602080825260139082015272696f2e7a65726f6e6175742e6f776e61626c6560681b604082015260600190565b80356001600160a01b0381168114610adb57600080fd5b919050565b600060208284031215610af257600080fd5b610afb82610ac4565b9392505050565b60008060408385031215610b1557600080fd5b82359150610b2560208401610ac4565b90509250929050565b600080600060608486031215610b4357600080fd5b8335925060208401359150610b5a60408501610ac4565b90509250925092565b600060208284031215610b7557600080fd5b5035919050565b6020808252825182820152828101516001600160a01b03166040808401919091528301516060808401528051608084018190526000929190910190829060a08501905b80831015610be25783518252602082019150602084019350600183019250610bbf565b5095945050505050565b60008083601f840112610bfe57600080fd5b50813567ffffffffffffffff811115610c1657600080fd5b6020830191508360208260051b8501011115610c3157600080fd5b9250929050565b600080600080600060608688031215610c5057600080fd5b85359450602086013567ffffffffffffffff811115610c6e57600080fd5b8601601f81018813610c7f57600080fd5b803567ffffffffffffffff811115610c9657600080fd5b886020828401011115610ca857600080fd5b60209190910194509250604086013567ffffffffffffffff811115610ccc57600080fd5b610cd888828901610bec565b969995985093965092949392505050565b634e487b7160e01b600052603260045260246000fd5b6040815283604082015283856060830137600060608583018101829052601f19601f8701168301838103820160208501529081018490526001600160fb1b03841115610d4a57600080fd5b8360051b80866080840137016080019695505050505050565b600060208284031215610d7557600080fd5b81518015158114610afb57600080fdfea264697066735822122005327eb46fb3384a093e4368a229a2393b30cbd3cd38ccd290f30230f1d4eeb664736f6c634300081b0033",
  "linkReferences": {},
  "deployedLinkReferences": {}
}