{
  "_format": "hh-sol-artifact-1",
  "contractName": "Safu",
  "sourceName": "contracts/codebreaker/Safu.sol",
  "abi": [
    {
      "inputs": [
        {
          "internalType": "string",
          "name": "_password",
          "type": "string"
        }
      ],
      "name": "checkPassword",
      "outputs": [
        {
          "internalType": "bool",
          "name": "",
          "type": "bool"
        }
      ],
      "stateMutability": "pure",
      "type": "function"
    }
  ],
  "bytecode": "0x6080604052348015600f57600080fd5b506101ea8061001f6000396000f3fe608060405234801561001057600080fd5b506004361061002b5760003560e01c806387e16d4d14610030575b600080fd5b61004361003e3660046100cc565b610057565b604051901515815260200160405180910390f35b604051671e995c9bdb985d5d60c21b602082015260009060280160405160208183030381529060405280519060200120826040516020016100989190610185565b60405160208183030381529060405280519060200120149050919050565b634e487b7160e01b600052604160045260246000fd5b6000602082840312156100de57600080fd5b813567ffffffffffffffff8111156100f557600080fd5b8201601f8101841361010657600080fd5b803567ffffffffffffffff811115610120576101206100b6565b604051601f8201601f19908116603f0116810167ffffffffffffffff8111828210171561014f5761014f6100b6565b60405281815282820160200186101561016757600080fd5b81602084016020830137600091810160200191909152949350505050565b6000825160005b818110156101a6576020818601810151858301520161018c565b50600092019182525091905056fea26469706673582212208967e532ba1f83034250ded9811e09d516b1d2077f6f9f265d659d5613e316f264736f6c634300081b0033",
  "linkReferences": {},
  "deployedLinkReferences": {}
}