{"contracts/txx/Safuer.sol":{"Safuer":{"abi":[{"inputs":[{"internalType":"string","name":"_password","type":"string"}],"name":"checkPassword","outputs":[{"internalType":"bool","name":"","type":"bool"}],"stateMutability":"pure","type":"function"},{"inputs":[{"internalType":"string","name":"_password","type":"string"}],"name":"solve","outputs":[],"stateMutability":"nonpayable","type":"function"},{"inputs":[{"internalType":"address","name":"","type":"address"}],"name":"solvers","outputs":[{"internalType":"bool","name":"","type":"bool"}],"stateMutability":"view","type":"function"}],"evm":{"bytecode":{"linkReferences":{},"object":"6080604052348015600f57600080fd5b506102868061001f6000396000f3fe608060405234801561001057600080fd5b50600436106100415760003560e01c806357f58d981461004657806376fe1e921461007d57806387e16d4d14610092575b600080fd5b610069610054366004610122565b60006020819052908152604090205460ff1681565b604051901515815260200160405180910390f35b61009061008b366004610168565b6100a5565b005b6100696100a0366004610168565b6100cf565b6100ae816100cf565b336000908152602081905260409020805460ff191691151591909117905550565b6000816040516020016100e29190610221565b60408051601f1981840301815291905280516020909101207fb01345a7cb32d90f4cad78d472caaaa40708f1221e1fa8eb48367627a977ac651492915050565b60006020828403121561013457600080fd5b81356001600160a01b038116811461014b57600080fd5b9392505050565b634e487b7160e01b600052604160045260246000fd5b60006020828403121561017a57600080fd5b813567ffffffffffffffff81111561019157600080fd5b8201601f810184136101a257600080fd5b803567ffffffffffffffff8111156101bc576101bc610152565b604051601f8201601f19908116603f0116810167ffffffffffffffff811182821017156101eb576101eb610152565b60405281815282820160200186101561020357600080fd5b81602084016020830137600091810160200191909152949350505050565b6000825160005b818110156102425760208186018101518583015201610228565b50600092019182525091905056fea264697066735822122089e5f693ed1aedc3b94bc8f14d7f02ebb49deff1aabe5fdec771c112907af67564736f6c634300081b0033","opcodes":"PUSH1 0x80 PUSH1 0x40 MSTORE CALLVALUE DUP1 ISZERO PUSH1 0xF JUMPI PUSH1 0x0 DUP1 REVERT JUMPDEST POP PUSH2 0x286 DUP1 PUSH2 0x1F PUSH1 0x0 CODECOPY PUSH1 0x0 RETURN INVALID PUSH1 0x80 PUSH1 0x40 MSTORE CALLVALUE DUP1 ISZERO PUSH2 0x10 JUMPI PUSH1 0x0 DUP1 REVERT JUMPDEST POP PUSH1 0x4 CALLDATASIZE LT PUSH2 0x41 JUMPI PUSH1 0x0 CALLDATALOAD PUSH1 0xE0 SHR DUP1 PUSH4 0x57F58D98 EQ PUSH2 0x46 JUMPI DUP1 PUSH4 0x76FE1E92 EQ PUSH2 0x7D JUMPI DUP1 PUSH4 0x87E16D4D EQ PUSH2 0x92 JUMPI JUMPDEST PUSH1 0x0 DUP1 REVERT JUMPDEST PUSH2 0x69 PUSH2 0x54 CALLDATASIZE PUSH1 0x4 PUSH2 0x122 JUMP JUMPDEST PUSH1 0x0 PUSH1 0x20 DUP2 SWAP1 MSTORE SWAP1 DUP2 MSTORE PUSH1 0x40 SWAP1 KECCAK256 SLOAD PUSH1 0xFF AND DUP2 JUMP JUMPDEST PUSH1 0x40 MLOAD SWAP1 ISZERO ISZERO DUP2 MSTORE PUSH1 0x20 ADD PUSH1 0x40 MLOAD DUP1 SWAP2 SUB SWAP1 RETURN JUMPDEST PUSH2 0x90 PUSH2 0x8B CALLDATASIZE PUSH1 0x4 PUSH2 0x168 JUMP JUMPDEST PUSH2 0xA5 JUMP JUMPDEST STOP JUMPDEST PUSH2 0x69 PUSH2 0xA0 CALLDATASIZE PUSH1 0x4 PUSH2 0x168 JUMP JUMPDEST PUSH2 0xCF JUMP JUMPDEST PUSH2 0xAE DUP2 PUSH2 0xCF JUMP JUMPDEST CALLER PUSH1 0x0 SWAP1 DUP2 MSTORE PUSH1 0x20 DUP2 SWAP1 MSTORE PUSH1 0x40 SWAP1 KECCAK256 DUP1 SLOAD PUSH1 0xFF NOT AND SWAP2 ISZERO ISZERO SWAP2 SWAP1 SWAP2 OR SWAP1 SSTORE POP JUMP JUMPDEST PUSH1 0x0 DUP2 PUSH1 0x40 MLOAD PUSH1 0x20 ADD PUSH2 0xE2 SWAP2 SWAP1 PUSH2 0x221 JUMP JUMPDEST PUSH1 0x40 DUP1 MLOAD PUSH1 0x1F NOT DUP2 DUP5 SUB ADD DUP2 MSTORE SWAP2 SWAP1 MSTORE DUP1 MLOAD PUSH1 0x20 SWAP1 SWAP2 ADD KECCAK256 PUSH32 0xB01345A7CB32D90F4CAD78D472CAAAA40708F1221E1FA8EB48367627A977AC65 EQ SWAP3 SWAP2 POP POP JUMP JUMPDEST PUSH1 0x0 PUSH1 0x20 DUP3 DUP5 SUB SLT ISZERO PUSH2 0x134 JUMPI PUSH1 0x0 DUP1 REVERT JUMPDEST DUP2 CALLDATALOAD PUSH1 0x1 PUSH1 0x1 PUSH1 0xA0 SHL SUB DUP2 AND DUP2 EQ PUSH2 0x14B JUMPI PUSH1 0x0 DUP1 REVERT JUMPDEST SWAP4 SWAP3 POP POP POP JUMP JUMPDEST PUSH4 0x4E487B71 PUSH1 0xE0 SHL PUSH1 0x0 MSTORE PUSH1 0x41 PUSH1 0x4 MSTORE PUSH1 0x24 PUSH1 0x0 REVERT JUMPDEST PUSH1 0x0 PUSH1 0x20 DUP3 DUP5 SUB SLT ISZERO PUSH2 0x17A JUMPI PUSH1 0x0 DUP1 REVERT JUMPDEST DUP2 CALLDATALOAD PUSH8 0xFFFFFFFFFFFFFFFF DUP2 GT ISZERO PUSH2 0x191 JUMPI PUSH1 0x0 DUP1 REVERT JUMPDEST DUP3 ADD PUSH1 0x1F DUP2 ADD DUP5 SGT PUSH2 0x1A2 JUMPI PUSH1 0x0 DUP1 REVERT JUMPDEST DUP1 CALLDATALOAD PUSH8 0xFFFFFFFFFFFFFFFF DUP2 GT ISZERO PUSH2 0x1BC JUMPI PUSH2 0x1BC PUSH2 0x152 JUMP JUMPDEST PUSH1 0x40 MLOAD PUSH1 0x1F DUP3 ADD PUSH1 0x1F NOT SWAP1 DUP2 AND PUSH1 0x3F ADD AND DUP2 ADD PUSH8 0xFFFFFFFFFFFFFFFF DUP2 GT DUP3 DUP3 LT OR ISZERO PUSH2 0x1EB JUMPI PUSH2 0x1EB PUSH2 0x152 JUMP JUMPDEST PUSH1 0x40 MSTORE DUP2 DUP2 MSTORE DUP3 DUP3 ADD PUSH1 0x20 ADD DUP7 LT ISZERO PUSH2 0x203 JUMPI PUSH1 0x0 DUP1 REVERT JUMPDEST DUP2 PUSH1 0x20 DUP5 ADD PUSH1 0x20 DUP4 ADD CALLDATACOPY PUSH1 0x0 SWAP2 DUP2 ADD PUSH1 0x20 ADD SWAP2 SWAP1 SWAP2 MSTORE SWAP5 SWAP4 POP POP POP POP JUMP JUMPDEST PUSH1 0x0 DUP3 MLOAD PUSH1 0x0 JUMPDEST DUP2 DUP2 LT ISZERO PUSH2 0x242 JUMPI PUSH1 0x20 DUP2 DUP7 ADD DUP2 ADD MLOAD DUP6 DUP4 ADD MSTORE ADD PUSH2 0x228 JUMP JUMPDEST POP PUSH1 0x0 SWAP3 ADD SWAP2 DUP3 MSTORE POP SWAP2 SWAP1 POP JUMP INVALID LOG2 PUSH5 0x6970667358 0x22 SLT KECCAK256 DUP10 0xE5 0xF6 SWAP4 0xED BYTE 0xED 0xC3 0xB9 0x4B 0xC8 CALL 0x4D PUSH32 0x2EBB49DEFF1AABE5FDEC771C112907AF67564736F6C634300081B0033000000 "},"methodIdentifiers":{"checkPassword(string)":"87e16d4d","solve(string)":"76fe1e92","solvers(address)":"57f58d98"}}}}}