{
  "_format": "hh-sol-artifact-1",
  "contractName": "Safuer",
  "sourceName": "contracts/txx/Safuer.sol",
  "abi": [
    {
      "inputs": [
        {
          "internalType": "string",
          "name": "_password",
          "type": "string"
        }
      ],
      "name": "checkPassword",
      "outputs": [
        {
          "internalType": "bool",
          "name": "",
          "type": "bool"
        }
      ],
      "stateMutability": "pure",
      "type": "function"
    },
    {
      "inputs": [
        {
          "internalType": "string",
          "name": "_password",
          "type": "string"
        }
      ],
      "name": "solve",
      "outputs": [],
      "stateMutability": "nonpayable",
      "type": "function"
    },
    {
      "inputs": [
        {
          "internalType": "address",
          "name": "",
          "type": "address"
        }
      ],
      "name": "solvers",
      "outputs": [
        {
          "internalType": "bool",
          "name": "",
          "type": "bool"
        }
      ],
      "stateMutability": "view",
      "type": "function"
    }
  ],
  "bytecode": "0x6080604052348015600f57600080fd5b506102868061001f6000396000f3fe608060405234801561001057600080fd5b50600436106100415760003560e01c806357f58d981461004657806376fe1e921461007d57806387e16d4d14610092575b600080fd5b610069610054366004610122565b60006020819052908152604090205460ff1681565b604051901515815260200160405180910390f35b61009061008b366004610168565b6100a5565b005b6100696100a0366004610168565b6100cf565b6100ae816100cf565b336000908152602081905260409020805460ff191691151591909117905550565b6000816040516020016100e29190610221565b60408051601f1981840301815291905280516020909101207fb01345a7cb32d90f4cad78d472caaaa40708f1221e1fa8eb48367627a977ac651492915050565b60006020828403121561013457600080fd5b81356001600160a01b038116811461014b57600080fd5b9392505050565b634e487b7160e01b600052604160045260246000fd5b60006020828403121561017a57600080fd5b813567ffffffffffffffff81111561019157600080fd5b8201601f810184136101a257600080fd5b803567ffffffffffffffff8111156101bc576101bc610152565b604051601f8201601f19908116603f0116810167ffffffffffffffff811182821017156101eb576101eb610152565b60405281815282820160200186101561020357600080fd5b81602084016020830137600091810160200191909152949350505050565b6000825160005b818110156102425760208186018101518583015201610228565b50600092019182525091905056fea264697066735822122089e5f693ed1aedc3b94bc8f14d7f02ebb49deff1aabe5fdec771c112907af67564736f6c634300081b0033",
  "linkReferences": {},
  "deployedLinkReferences": {}
}